:100000000C94E0000C94BD0C0C94960C0C946F0CAA
:100010000C94480C0C9408010C9408010C94210CCD
:100020000C9408010C94A00D0C9436090C94A509AD
:100030000C9408010C9408010C9408010C9408011C
:100040000C9408010C9408010C9408010C9408010C
:100050000C9408010C9408010C9408010C94D70B23
:100060000C9408010C9408010C9408010C940801EC
:100070000C9408010C9408010C9408010C940801DC
:100080000C94E40C0C9408010C9408010C940801E5
:100090000C943C0E0C9408010C9408010C9408017B
:1000A0000C9408010C94EB0D0C9408010706050450
:1000B0000100080A0B0C0D090000000024002700B5
:1000C0002A002D00300000000000250028002B0031
:1000D0002E003100000000002300260029002C0023
:1000E0002F000404040404030405020202020403B2
:1000F00002020202060606060606040402020204C2
:100100000404080201104080401020408040800814
:100110000204018040201002011080102040402085
:100120000000000200090F0000030401000C0000A1
:1001300000000000000000000000000000000008B7
:100140000B0002020200000904000001020200008C
:1001500005240010010524010101042402060524E0
:100160000600010705810310004009040100020A8E
:10017000000000070502024000000705830240005E
:10018000000403090412010002EF020140FB1F00FA
:1001900023000101020301506F6C6F6C7520436FE7
:1001A00072706F726174696F6E00506F6C6F6C75F6
:1001B00020412D5374617220333255340000A80E53
:1001C00011241FBECFEFDAE0DEBFCDBF11E0A0E00B
:1001D000B1E0EEEAF6E202C005900D92A838B10750
:1001E000D9F723E0A8E8B1E001C01D92A131B20720
:1001F000E1F710E0C0EED0E004C02197FE010E94BC
:100200004A13CF3DD107C9F70E941A0F0C9455131A
:100210000C940000FC018091CB01882311F13FB7C1
:10022000F89482E08093E9002091F200822F90E020
:100230001816190614F481E090E0882339F0289804
:1002400044E64093CA014091F1004083222339F0F3
:100250002091F200211103C02BE62093E8003FBF5C
:1002600008958FEF9FEF08952FB7F89483E0809360
:10027000E9009091E800892F807295FF04C0909169
:10028000F20080E4891B2FBF08958091C201811183
:100290000DC082E08093BE0184E08093BF01109284
:1002A000C1011092C00181E08093C2018EEB91E008
:1002B0000895CF93DF931F92CDB7DEB76983DC013A
:1002C000ED91FC910280F381E02D41E050E0BE0110
:1002D0006F5F7F4F09950F90DF91CF91089583E075
:1002E0008093E9008091F200882319F08AE38093DB
:1002F000E80008950E94340190E00895CF93DF93C1
:100300001F92CDB7DEB7FC018485958597FD08C0A7
:100310002FEF3FEF358724870F90DF91CF9108951E
:10032000CE0101960E940A01019719F4898190E09B
:10033000F3CF8FEF9FEFF0CF0F931F93CF93DF9308
:100340001F92CDB7DEB78C01FC018485958597FFA0
:100350000BC0CE0101960E940A01019771F48981B8
:1003600090E0F80195878487F801848595850F9042
:10037000DF91CF911F910F9108958FEF9FEFF1CFF4
:10038000FC018485958597FD0BC09FB7F89482E0AA
:100390008093E9008091F2009FBF90E0019608955C
:1003A0009FB7F89482E08093E9008091F2009FBFAC
:1003B00090E008954091B8015091B9012091B601A3
:1003C0003091B70142175307B4F49091E80095704B
:1003D000E1F39091E80092FD19C08093F1008091C3
:1003E000B8019091B90101968F739927892B19F45F
:1003F0008EEF8093E8008091B8019091B901019649
:100400009093B9018093B80181E0089580E0089548
:10041000EF92FF920F931F93CF93DF93F82E192F34
:10042000E62E042F81E0860F880F0E94DA0183E018
:100430000E94DA01CF2DD12FEC0EFD2EF11CCE152E
:10044000DF05B9F007FF13C0FE0184910E94DA01B5
:10045000182F80E00E94DA01812321968111EFCFCD
:10046000DF91CF911F910F91FF90EF9008958881B8
:10047000EDCF81E0F5CFDF92EF92FF920F931F93C4
:10048000CF93DF93D82E8A01EB017B01E40EF51E9A
:10049000CE15DF0559F0D7FE12C0FE0184910E94EF
:1004A000DA0121968111F4CF0FEF1FEFC801DF9120
:1004B000CF911F910F91FF90EF90DF900895888169
:1004C000EECF0F931F93CF93DF931F92CDB7DEB77D
:1004D00082E0898342E450E06FE371E080E80E94AB
:1004E0003B020E944501DC0112960D911C91011501
:1004F000110589F0D801ED91FC910280F381E02D86
:10050000BE016F5F7F4FC801099597FD04C0F801D8
:1005100000851185ECCF89810F90DF91CF911F91DC
:100520000F910895615030F02091F100FC0120837B
:100530000196F8CF289884E68093CA0108958150E7
:100540008F3008F047C0E82FF0E0E755FD4F0C94DE
:100550004A13C602CA02B802BE02C202EA02EA0294
:10056000EA02CD02D302D702DB02E102EA02E5028F
:10057000809180008F778093800008958091800023
:100580008F7DF9CF80918000877FF5CF84B58F77FD
:1005900084BD089584B58F7DFBCF809190008F77C7
:1005A000809390000895809190008F7DF9CF809185
:1005B0009000877FF5CF8091C0008F778093C00037
:1005C00008958091C0008F7DF9CF8091C200877F10
:1005D0008093C2000895CF93DF93282F30E0F90174
:1005E000E05EFE4F8491F901EF5FFE4FD491F90177
:1005F000EE51FF4FC491CC23A1F081110E949F02C4
:10060000EC2FF0E0EE0FFF1FEC52FF4FA591B491DD
:10061000EC91ED2381E090E009F480E0DF91CF914F
:10062000089580E090E0FACF1F93CF93DF93282FB7
:1006300030E0F901E05EFE4F8491F901EF5FFE4F7B
:10064000D491F901EE51FF4FC491CC23A9F0162F9C
:1006500081110E949F02EC2FF0E0EE0FFF1FEA5382
:10066000FF4FA591B4918FB7F894EC91111108C088
:10067000D095DE23DC938FBFDF91CF911F9108953A
:10068000DE2BF8CFCF93DF9390E0FC01EF5FFE4FBE
:1006900024918E519F4FFC0184918823C9F090E0F2
:1006A000880F991FFC01E854FF4FA591B491FC01FC
:1006B000EA53FF4FC591D49161110DC09FB7F894D3
:1006C0008C91209582238C938881282328839FBF37
:1006D000DF91CF910895623051F49FB7F8943C9127
:1006E000822F809583238C93E8812E2BEFCF8FB7B9
:1006F000F894EC912E2B2C938FBFEACF1F93CF93BE
:10070000DF93EC01162F88818C3008F04BC061E03C
:10071000812F0E9442038881282F30E0F901EE0FDB
:10072000FF1FE20FF31FE45EFD4F1F736081607CCB
:10073000612B608319821A822CE0622F0E942A1397
:10074000829FB001112430E020E0AB01420F531F23
:10075000FA01EE0FFF1FE40FF51FE45EFD4F9081DD
:1007600096FD13C02F5F3F4F2C30310571F781117B
:100770000CC01092900082E080939100109295003E
:100780001092940088BB80937100E8818E2F90E0D6
:10079000FC01EE0FFF1FE80FF91FE45EFD4F8081A3
:1007A000806480838881DF91CF911F910895823189
:1007B00008F08251E82FF0E0E455FF4FE49190916A
:1007C0007B008E2F880F880F80729F7D892B8093EE
:1007D0007B00E770E064E0937C0080917A008064A5
:1007E00080937A0080917A0086FDFCCF809178001A
:1007F0009091790008953FB7F89480919601909177
:100800009701A0919801B091990126B5A89B05C0C8
:100810002F3F19F00196A11DB11D3FBFBA2FA92F7F
:10082000982F8827BC01CD01620F711D811D911D7C
:1008300042E0660F771F881F991F4A95D1F70895E8
:10084000CF92DF92EF92FF920E94FB036B017C013B
:100850000E94FB036C197D098E099F09683E734055
:1008600081059105A8F3FF90EF90DF90CF90089558
:100870008F929F92AF92BF92CF92DF92EF92FF92B0
:100880000F931F93CF93DF936C017B018A018091BB
:100890001F01882309F458C08091CB01882309F4F3
:1008A00053C08091BD0180FF05C08091E00082604F
:1008B0008093E000E801B12C8AEFA82E93E0892E06
:1008C0002AE3922E209711F4BB20B9F10E94340143
:1008D000811106C0AA94AA20B9F10E942004F2CF87
:1008E0008C171D0611F00CF08C2F9FB7F894809296
:1008F000E9002091E80025FD02C09FBFE3CF282F2B
:1009000030E0C21BD30BF701815020F0419140939E
:10091000F100FACFE20EF31EBB2021F09092E80026
:10092000B12CEBCF8091E80085FDE7CF9092E800F5
:10093000BB24B394209709F3F3CF5D9884E68093AA
:10094000BC01101611063CF081E090E0F6019383A3
:10095000828310E000E0C801DF91CF911F910F91D9
:10096000FF90EF90DF90CF90BF90AF909F908F90CF
:10097000089508952E98269A2D98259A2A98229AB5
:100980002998219A80EA8093800081E180938100F8
:1009900080E991E09093870080938600109289000F
:1009A0001092880010928B0010928A0008959FB1D7
:1009B00091708CB186FB882780F98927209193015B
:1009C000309192014091A7015091A8012927382721
:1009D000231B330B240F351F3093A8012093A7014D
:1009E0003091930120919201381729F0291719F0BD
:1009F00021E02093910180939301909392010895B7
:100A000080918D01811145C081E080938D012498F2
:100A10002C9A6A98729A6E98769A8098889A80939F
:100A2000680090E190936B008BBB87ED94E090930E
:100A300013018093120180916A008F7C8061809302
:100A40006A00EE9A8CB182FB882780F980938F012F
:100A500093B180918F019295917089278093900135
:100A60001092A6011092A50110928E018FB1817093
:100A7000809392019CB18091920196FB992790F905
:100A80008927809393011092A8011092A7011092D8
:100A900091010895CF93DF93EC01888581110EC0F9
:100AA000898591E098879A8562E0911101C060E0A4
:100AB0000E9442038FE090E00197F1F789850E9440
:100AC000EB023B8521E03817190609F420E0822F5C
:100AD000DF91CF91089580919D01E0919E01F09169
:100AE0009F01882339F084919FEB980F9A3120F46D
:100AF000805E08958081F8CF803269F420919E0154
:100B000030919F01A9014F5F5F4F50939F01409328
:100B10009E01232B01F708951F93CF93DF930E942B
:100B20006B05D0E0C0E01AE090ED980F9A30B8F471
:100B30001C9F90011D9F300D1124E901C80FD11D8C
:100B400087FDDA95E09780919E0190919F01019633
:100B500090939F0180939E010E946B05E5CFCE018B
:100B6000DF91CF911F9108953F924F925F926F92C4
:100B70007F928F929F92AF92BF92CF92DF92EF922D
:100B8000FF920F931F93CF93DF93CDB7DEB72897D4
:100B90000FB6F894DEBF0FBECDBF7A836983142FE2
:100BA0002091890121111BC021E02093890110921D
:100BB00072001092C00034E03093C10039E03093ED
:100BC000C2002093C30023E02093BF0028EE2093AF
:100BD000D1001092BF001092D200579A78941092D0
:100BE000000101E097FF02C09F770AE028E2029F20
:100BF000202D1124422F50E058874F8384179507EA
:100C000058F098878F83013039F48131974220F072
:100C100040E157E258874F83402E512C712C612CB4
:100C20008F819885969587959C0150E040E02B83B5
:100C30003C834D835E834F8158854A01B12CA12CA2
:100C4000A301920160E072E18AE790E00E941A132A
:100C50002B813C814D815E81620F731F841F951F24
:100C6000A50194010E94B71269017A01EE24FF24C4
:100C7000312C3394C11434E0D306E104F10408F1BB
:100C800020E032E14AE750E0032C04C05595479537
:100C9000379527950A94D2F7C301B2010E941A131F
:100CA0002B813C814D815E81620F731F841F951FD4
:100CB000A50194010E94B71269017A01EE24FF2474
:100CC000D8CF0A3049F48F81988505966AE070E0A4
:100CD0000E94361378876F834F815885483E83E0A2
:100CE000580769F029813A81DA010E940B1328EE36
:100CF00033E040E050E00E94B7123A83298310921B
:100D000072008091C100807F382A3092C100BB27D9
:100D1000AF2D9E2D8D2D8093BF00C092D10010313C
:100D200008F01FE080E190E0811B910904C0F69477
:100D3000E794D794C7948A95D2F78D2D99278093FD
:100D4000BF00C092D20029813A8130938B01209359
:100D50008A0189B38FEF89BB84E080937200289663
:100D60000FB6F894DEBF0FBECDBFDF91CF911F91BC
:100D70000F91FF90EF90DF90CF90BF90AF909F903A
:100D80008F907F906F905F904F903F9008956F92FB
:100D90007F928F929F92AF92BF92CF92DF92EF920B
:100DA000FF920F931F93CF93DF939090090180914F
:100DB0008C018823E9F080919C018823C9F060911F
:100DC0009C0170E040E088EE93E00E94B405109230
:100DD0009C01DF91CF911F910F91FF90EF90DF90D9
:100DE000CF90BF90AF909F908F907F906F9008951D
:100DF0007724739470ECA72E7DE5B72EEAE06E2E73
:100E0000F4E08F2EA0EDCA2EA7E0DA2EB4E0EB2E90
:100E1000F12C04EF11E0CFE0D0E00E946B052091AF
:100E20009E0130919F012F5F3F4F30939F01209390
:100E30009E01853609F473C00CF047C0813609F471
:100E4000B4C024F58C3309F468C08E3309F463C050
:100E5000813209F043C080920901D0920601C0920C
:100E60000501F0920801E09207011093040100933C
:100E70000301D0930201C093010110928C01909064
:100E800009018091030190910401C7CF833609F4D1
:100E90008FC0C0E0DBE0843614F0C0E0D2E04CE06C
:100EA000949ED00D11240E946B05982F977F93324A
:100EB00009F080C080919E0190919F0101969093CE
:100EC0009F0180939E01DF5FEECF8D3609F445C010
:100ED00054F4873651F134F18C3651F110929F0160
:100EE00010929E0176CF823709F44CC044F48F36BD
:100EF000A9F70E948C05982E809309018ECF843724
:100F000009F443C0863751F70E948C059093020183
:100F10008093010182CF939480CF9A947ECFC0E0DA
:100F2000D4E0BDCFC0E0D5E0BACFC0E0D7E0B7CFC6
:100F30000E948C0590930801809307018091050120
:100F40009091060160910701709108010E9436138B
:100F5000709304016093030160CF0E946B058C368F
:100F600061F410928C0180919E0190919F010196F5
:100F700090939F0180939E0150CF70928C011092AC
:100F80009C01F1CFC1E0D0E08ACF0E948C05BC016A
:100F9000C5010E943613669EC001679E900D112404
:100FA0009093060180930501C9CFC0E0D9E077CFC7
:100FB000C0E0E9CF8D3269F480919E0190919F014C
:100FC000019690939F0180939E01D1500E946B05E2
:100FD000F1CF00910301109104018153883058F43E
:100FE00000910501109106010E948C05BC01C80109
:100FF0000E9436138B017801F694E7940E946B05EA
:101000008E3261F480919E0190919F0101969093A0
:101010009F0180939E010E0D1F1DEECF80918C01CC
:10102000882349F0C8019695879580939C0180910B
:101030009C01081B1109E0900101F0900201C1110F
:1010400004C0DF3F11F0E11014C040E0B80188EEA9
:1010500093E0DF91CF911F910F91FF90EF90DF9080
:10106000CF90BF90AF909F908F907F906F900C9497
:10107000B405D13128F0C0EFCD0FC03608F0CFE570
:101080008C2F6CE00E942A13582F44EF45039001E7
:1010900011242C0F311D2C303105C8F4220F331FC1
:1010A000F901E05EFE4F208131818730D9F0082EB2
:1010B00002C0220F331F0A94E2F7823058F0C901B0
:1010C00005966AE070E00E943613CB0105C030E05F
:1010D00020E0EBCFC90190584E2D403108F04FE091
:1010E000B801B7CFC90126E0880F991F2A95E1F70B
:1010F000029665E070E0E7CFCF93DF93FC01848137
:10110000882389F080E09481891760F4EF01C80F8B
:10111000D11D9D81A281AC0FBD2FB11DD9969C938D
:101120008F5FF1CF1482DF91CF910895EBE4F0E06F
:101130003197F1F7FC0113820895EBE4F0E0319769
:10114000F1F7DC011296EC91129721E02E0F129626
:101150002C93E80FF92FF11D85890895CF93DF9324
:10116000EC018BE490E00197F1F78B8181110FC0C6
:10117000DE015596FE01F99684E201900D928A9562
:10118000E1F76A8381E08B83DF91CF9108958C81B1
:10119000813108F01C828C81FE01E80FF11D65830E
:1011A0008F5F8C83F1CF0E945013CF93DF93A2EE19
:1011B000B0E09C911C92E9EEF0E020811082C0EF3B
:1011C000D0E03881188240E028994160209942603F
:1011D0002098289A80E18A95F1F783B141FB0EF0BF
:1011E000209840FB0EF028980EF4289A41FB0EF44C
:1011F000209A1082388320839C9380958170DF91A0
:10120000CF910895CF93DF93A2EEB0E09C911C9212
:10121000E9EEF0E020811082C0EFD0E03881188242
:1012200040E05D9941605599426055985D9A80E132
:101230008A95F1F789B141FB0EF0559840FB0EF00D
:101240005D980EF45D9A41FB0EF4559A1082388336
:1012500020839C9390E025E0959587952A95E1F76A
:10126000809590958170DF91CF9108951F920F9294
:101270000FB60F9211248F939F938091E10090916C
:10128000E100937F9093E10083FF0FC01092E9008B
:1012900091E09093EB001092EC0092E39093ED00BC
:1012A0001092CB0198E09093F00082FF22C093E06F
:1012B0009093E9009091F200992319F09AE39093AA
:1012C000E8009091BC01992341F09091BC019150AC
:1012D0009093BC01911101C05D9A9091CA0199232C
:1012E00041F09091CA0191509093CA01911101C0AF
:1012F000289A84FF18C08091E2008E7E81608093DE
:10130000E2008091E1008F7E8093E1008091BD0139
:101310008E7E80618093BD019F918F910F900FBE53
:101320000F901F90189580FFF7CF8091E2008E7E7E
:1013300080618093E2008091E1008E7E8093E100E5
:101340008091BD018E7E8160E5CF1F920F920FB616
:101350000F921124CF92DF92EF92FF920F931F937F
:101360002F933F934F935F936F937F938F939F93AD
:10137000AF93BF93EF93FF93CF93DF93CDB7DEB7D8
:101380006C97DEBFCDBF1092E9008091E80083FF2B
:1013900025C068E0CE0145960E94920282EF8093BC
:1013A000E8008D8987FF39C09091E80090FFFCCF5D
:1013B000982F907609F034C19E894F89588D2F89D6
:1013C000F88C911131C0803861F58091BB01809318
:1013D000F1001092F1008EEF8093E8006C960FB64A
:1013E000F894DEBF0FBECDBFDF91CF91FF91EF919B
:1013F000BF91AF919F918F917F916F915F914F912D
:101400003F912F911F910F91FF90EF90DF90CF9020
:101410000F900FBE0F901F9018959EEF9093E800CD
:10142000C7CF1092F100D5CF913059F48111D3CFAD
:101430004130510581F68091BB018D7F8093BB01C6
:10144000CACF933049F48111C6CF4130510519F606
:101450008091BB018260F2CF953041F48091E80029
:1014600080FFFCCF20682093E300B5CF963009F0D1
:10147000A9C00B8D1C8D22E01092E9001092B901D9
:101480001092B801F2122EC01092B7011092B6015C
:101490000E9461021F8299E09983FA8291E09E8303
:1014A00090EA98879AEF99872091B8013091B90115
:1014B000275F3F4F3C832B838D831092E90010926E
:1014C000B9011092B8011093B7010093B60149E039
:1014D00050E0BE016F5F7F4F80E00E943B020E94A0
:1014E000610279CF1093B7010093B6010E944501C4
:1014F000DC0112960D911C910115110509F451C1E1
:10150000D801ED91FC910480F581E02DBE016B5E68
:101510007F4FC8010995009709F03EC1F801008589
:101520001185EACFF3E0FF120EC08F89882309F4FA
:1015300040C0823061F440E862E18AEA91E00E94B2
:101540000802811148CF81E28093EB0047CF8130C0
:1015500029F440E862E187E991E0F1CF833099F71F
:101560000E944501DC011296ED90FC908E010F5F08
:101570001F4F6801E114F10479F0D701ED91FC915E
:101580000680F781E02DB801C7010995080F111DEC
:10159000F701E084F184EECFD8011C92F6010190AE
:1015A0000020E9F73197BF016C197D0940E0C601C1
:1015B000C6CF61E871E0FB01449150E080E80E94F1
:1015C0003B0209CF973009F4BECF983021F481E077
:1015D0008093F10000CF993009F0FDCE837009F0BF
:1015E000B2CFE3E4F1E081E031E096E32191222300
:1015F00071F08093E9003093EB00DF0111972C919B
:101600002093EC009093ED008F5F873079F78EE7A1
:101610008093EA001092EA008F898093CB01DBCEA1
:101620008B8D9C8D1092E9001092B9011092B80137
:101630009093B7018093B601898D811192C08E89F4
:101640009D89913A49F4813209F07DCF47E050E01D
:1016500068E171E080E0B3CF913209F074CF83325A
:1016600069F48F89988DB0E0A0E080931401909385
:101670001501A0931601B0931701ADCE803269F425
:101680008091E80082FFFCCF67E088E191E00E9452
:1016900092028BEF8093E8009ECE823209F09BCEBF
:1016A0008F8980931F01EEEFFFE7859194918B3F27
:1016B0009C4D51F1E0E0F8E0809118019091190102
:1016C000A0911A01B0911B01803B9440A105B10586
:1016D000F1F480911F0180FD1AC0EE3F8AE0F80707
:1016E00089F587E797E791838083809160008093F5
:1016F000BA0188E19BE00FB6F894A895809360004A
:101700000FBE9093600067CEEEEFFAE0D5CF8081F8
:1017100091818737974709F05ECEA8958091600048
:101720008861809360008091BA0180936000EE3FF1
:101730002AE0F20789F08091FE0A9091FF0A9183D6
:10174000808349CE808191818737980751F29093A9
:10175000FF0A8093FE0AC5CF1092FF0A1092FE0A7C
:101760003ACE0E944501DC0112960D911C910115A3
:10177000110509F4E8CED801ED91FC910190F081BA
:10178000E02DBE016B5E7F4FC8010995811123CE0C
:10179000F80100851185EBCF181619060CF41BCE45
:1017A000D2CEF1E0FF12BECE65E871E004CF1F9209
:1017B0000F920FB60F9211242F933F938F939F9305
:1017C000AF93BF938091A0019091A101A091A2013C
:1017D000B091A3013091950123E0230F2D3758F5E7
:1017E0000196A11DB11D209395018093A0019093B6
:1017F000A101A093A201B093A301809196019091C1
:101800009701A0919801B09199010196A11DB11D78
:101810008093960190939701A0939801B0939901BA
:10182000BF91AF919F918F913F912F910F900FBEDC
:101830000F901F90189526E8230F0296A11DB11D49
:10184000D2CF1F920F920FB60F9211242F933F9376
:101850004F935F936F937F938F939F93AF93BF93B8
:10186000EF93FF93E0911201F09113010995FF911D
:10187000EF91BF91AF919F918F917F916F915F9108
:101880004F913F912F910F900FBE0F901F90189581
:101890001F920F920FB60F9211242F933F934F93E5
:1018A0005F936F937F938F939F93AF93BF93EF93C8
:1018B000FF93E0911001F09111010995FF91EF91D3
:1018C000BF91AF919F918F917F916F915F914F9158
:1018D0003F912F910F900FBE0F901F9018951F9260
:1018E0000F920FB60F9211242F933F934F935F9354
:1018F0006F937F938F939F93AF93BF93EF93FF93D8
:10190000E0910E01F0910F010995FF91EF91BF91C8
:10191000AF919F918F917F916F915F914F913F9187
:101920002F910F900FBE0F901F9018951F920F923E
:101930000FB60F9211242F933F934F935F936F93A2
:101940007F938F939F93AF93BF93EF93FF93E09118
:101950000C01F0910D010995FF91EF91BF91AF91AD
:101960009F918F917F916F915F914F913F912F91B7
:101970000F900FBE0F901F9018951F920F920FB6E9
:101980000F9211242F933F934F935F936F937F9305
:101990008F939F93AF93BF93EF93FF93E0910A01CF
:1019A000F0910B010995FF91EF91BF91AF919F913C
:1019B0008F917F916F915F914F913F912F910F90F8
:1019C0000FBE0F901F9018951F920F920FB60F9297
:1019D00011242F933F934F935F936F937F938F9334
:1019E0009F93AF93BF93CF93DF93EF93FF93809138
:1019F0009401C0914002D0E087FF24C0109295006E
:101A000010929400809194018F5F80939401809153
:101A10009401082E000C990B8C179D0724F48091DB
:101A200094018C30C4F180919400909195000496BB
:101A300080349C4908F47AC080919400909195007C
:101A4000049676C080919401082E000C990B8C1797
:101A50009D07C4F6E09194018E2FEE0F990BFC01C7
:101A6000EE0FFF1FE80FF91FE45EFD4F808186FF38
:101A7000C9CFE09194018E2FEE0F990BFC01EE0F70
:101A8000FF1FE80FF91FE45EFD4F808160E08F7358
:101A90000E941403B7CF2091940030919500E091FB
:101AA00094018E2FEE0F990BFC01EE0FFF1FE80F34
:101AB000F91FE45EFD4F81819281820F931F909305
:101AC000990080939800E09194018E2FEE0F990B6E
:101AD000FC01EE0FFF1FE80FF91FE45EFD4F808150
:101AE00086FF11C0E09194018E2FEE0F990BFC013F
:101AF000EE0FFF1FE80FF91FE45EFD4F808161E0EC
:101B00008F730E941403FF91EF91DF91CF91BF91EA
:101B1000AF919F918F917F916F915F914F913F9185
:101B20002F910F900FBE0F901F90189580E49CE9A5
:101B300090939900809398008FEF80939401E3CF66
:101B40001F920F920FB60F9211242F933F934F9332
:101B50006F937F938F939F938CB1282F30E03595AF
:101B6000279535952795422F417083B190E064E029
:101B7000959587956A95E1F782278170209190016C
:101B800090918F016091A5017091A601242798275B
:101B9000291B330B260F371F3093A6012093A50175
:101BA0002091900190918F01281729F0941719F036
:101BB00091E090938E018093900140938F019F91CB
:101BC0008F917F916F914F913F912F910F900FBE09
:101BD0000F901F9018951F920F920FB60F9211241D
:101BE0002F933F934F935F936F937F938F939F9325
:101BF000AF93BF93EF93FF9380918A0190918B01F4
:101C00009C012150310930938B0120938A01892B4B
:101C100011F51092720078948091C100807F8460E9
:101C20008093C10083E08093BF0088EE8093D10051
:101C30001092BF001092D20081E080930001809149
:101C40009E0190919F01892B31F080918801811133
:101C500002C00E94C706FF91EF91BF91AF919F9183
:101C60008F917F916F915F914F913F912F910F9045
:101C70000FBE0F901F9018951F920F920FB60F92E4
:101C800011242F933F934F935F936F937F938F9381
:101C90009F93AF93BF93EF93FF938091B9008038E8
:101CA000B9F1C8F4882309F44FC0803629F185ECD6
:101CB0008093BC00FF91EF91BF91AF919F918F9165
:101CC0007F916F915F914F913F912F910F900FBE38
:101CD0000F901F901895883A49F1883B39F1803A66
:101CE00031F780919A0190919B01DC01ED91FC917B
:101CF0000680F781E02D0AC080919A0190919B01A6
:101D0000DC01ED91FC910480F581E02D0995CFCFA8
:101D100080919A0190919B016091BB00DC01ED9153
:101D2000FC910190F081E02D0995C1CF80919A013D
:101D300090919B01DC01ED91FC910280F381E02DFB
:101D400009958093BB00B3CF84ED8093BC00AFCFE7
:101D50001092CF011092CE0188EE93E0A0E0B0E0A7
:101D60008093D0019093D101A093D201B093D3017D
:101D70008DE491E09093CD018093CC018FEF9FEFA4
:101D80009093D9018093D801E2E0F3E021E133E0C0
:101D90004FEF68EB7BE0809140028C3008F048C048
:101DA00091E0980F90934002808390E0DC01AA0FAD
:101DB000BB1FA80FB91FA45EBD4F12967C936E93F4
:101DC000119733962E173F0731F71092F8021092B1
:101DD000FB021092FE028EE08093FF0281E080936E
:101DE0000003809301038BE691E09093F7028093C8
:101DF000F6021092F0021092F30285E691E09093C1
:101E0000EF028093EE021092E8021092EB028FE54F
:101E100091E09093E7028093E60281E791E090934E
:101E200042028093410210924402109245020895AA
:101E30004083C7CFCF93DF9300D000D0CDB7DEB7BC
:101E4000789484B5826084BD84B5816084BD85B595
:101E5000826085BD85B5816085BD80916E008160A1
:101E600080936E0010928100809181008260809347
:101E70008100809181008160809381008091800049
:101E800081608093800080919100826080939100B6
:101E90008091910081608093910080919000816099
:101EA000809390008091C10084608093C1008091F4
:101EB000C10082608093C1008091C10081608093E5
:101EC000C1008091C30081608093C3008091C000F5
:101ED00082608093C0008091C20081608093C200C4
:101EE00080917A00846080937A0080917A00826089
:101EF00080937A0080917A00816080937A0080914B
:101F00007A00806880937A001092CB011092BB0116
:101F10001092BD018091D70081608093D70080EA44
:101F20008093D80089B5806189BD89B5826089BDFB
:101F300009B400FEFDCF0E9420048091D8008F7C60
:101F400080618093D8008091E000807F8093E000E2
:101F50008091E1008E7E8093E1008DE08093E2002D
:101F6000559A209A81E492E090939B0180939A0184
:101F700088E28093BA0061E082E00E94140361E08D
:101F800083E00E94140385EC8093BC0065E170E05F
:101F900082E093E00E947E0366E170E085E093E0DA
:101FA0000E947E031092720089E791E090939F0156
:101FB00080939E0110929D0110929C010E94C70681
:101FC000DD24D394F89484E2EAE7F2E0A2ECB2E0F4
:101FD00001900D928A95E1F7789484E2E2ECF2E0C8
:101FE000AEE9B2E001900D928A95E1F78091B501DA
:101FF0008111D092C3022FB7F8948091A0019091E3
:10200000A101A091A201B091A3012FBF4091B10104
:102010005091B2016091B3017091B401841B950B92
:10202000A60BB70B893E9340A105B10540F0109275
:10203000DB021092DA021092DD021092DC02809133
:10204000C4028823A9F02FB7F8948091A001909141
:10205000A101A091A201B091A3012FBF8093B10172
:102060009093B201A093B301B093B4011092C40253
:102070008091C50287FF14C0282F30E03595279541
:102080003595279523709FEF920F923048F4837017
:10209000823030F42130F1F58093AF011092C50207
:1020A0008091C20287FF46C0282F30E035952795E2
:1020B00035952795922F9F709530E0F58370292FE5
:1020C00030E0F901E755FE4F8083F901EE0FFF1F65
:1020D000E20FF31FEE5FFC4F608170E0AB01440F35
:1020E000551F460F571FFA01E45EFD4F408146FB26
:1020F000552750F9833009F436C1552319F0942F30
:102100009F7B9083882349F0813071F4235C3E4F9C
:1021100060E006C08093AE01C1CF235C3E4F61E01A
:10212000F90180810E944203D092C302D092B5018E
:102130001092C2028091D4029091B001891749F0A7
:102140008093B00160E0811101C061E08BE00E94EA
:10215000420386EF92E00E944A058093C602809176
:10216000C902882309F40EC1479A3F9A8091AF01B2
:10217000813009F009C18EEE92E00E94020980933D
:10218000C7028091AE01813009F007C186EE92E06E
:102190000E94D5088093C80229EA31E03A83298356
:1021A00041E050E05C834B83E981FA818191FA83BD
:1021B000E983813009F40EC108F4F8C0823009F4D3
:1021C00019C1833009F421C12B813C812F5F3F4F1E
:1021D0003C832B832630310539F74091DC02509146
:1021E000DD025A8349830091DA021091DB0280916B
:1021F000A401811104C0D092A4010E94BA0480E01D
:1022000017FF04C011950195110981E00D3251E0CD
:10221000150714F00CE211E010938B0000938A0074
:10222000882309F49EC12A9A229A8091A4018111DF
:1022300004C0D092A4010E94BA0489819A8197FFB8
:1022400092C19195819591099A83898381E0E98171
:10225000FA81ED32F14024F04CE251E05A83498397
:10226000E981FA81F0938900E0938800882309F4DA
:102270007CC1299A219A8091E002882371F0109202
:10228000E0020E940005F8948091A5019091A601BA
:102290001092A6011092A50178948091E102882302
:1022A00071F01092E1020E940005F8948091A7015C
:1022B0009091A8011092A8011092A70178940E9411
:1022C0000005F8948091A5019091A60178949093CF
:1022D000E3028093E2020E940005F8948091A70136
:1022E0009091A80178949093E5028093E40218E01D
:1022F0001A82198283E10E94D70329813A81280F2B
:10230000391F3A8329831150A9F7A3E5B7E00E944A
:102310000B1361507E4F8F4F9F4F2AE09695879504
:10232000779567952A95D1F77093DF026093DE0267
:10233000F894E2ECF2E0DF01819194979C91981778
:1023400021F0DF01A954B1098C9346EE52E04E17FB
:102350005F0789F7789480E090E0892B09F432CE0A
:102360000E9400002DCE5111DFCE235C3E4FF901BB
:10237000608170E0989FC00111248E5F9C4F0E9485
:102380007E03D2CE4798F1CE8091C702811103C05F
:102390005D9A559AF6CE5D98FCCF8091C802811166
:1023A00003C0289A209AF8CE2898FCCFEB81FC81B4
:1023B000EE0FFF1FE853FD4F61E080819181892B73
:1023C00009F460E0EB81FC81E45CFE4F80810E94B7
:1023D0001403FACEEB81FC81E45CFE4F80810E9405
:1023E000EB02EB81FC81EE0FFF1FE853FD4F918361
:1023F0008083EACEEB81FC81E95CFE4F80818823FB
:1024000009F4E2CE0E94D703ECCF8B819C81880F28
:10241000991F0B811C81080F191F0E5F1C4FF801BB
:102420003397C080EC2CF12C1701220C331CF101E6
:10243000EE0DFF1DE45EFD4F208126FFC5CE8853C3
:102440009D4FFC0120813181032E000C440B550B64
:1024500020573E4F4F4F5F4FA4EBB0E00E94D61283
:1024600020E233E040E050E00E94B7122901C901A8
:10247000203232400CF040C0F8013297808178E879
:10248000872E912C881A910887FD9394880C991CAB
:10249000880C991C092C000CAA08BB083196808175
:1024A00048E552E0481B510987FD5395440F551FDD
:1024B000440F551F052E000C660B770B9A01AB01DC
:1024C000281939094A095B09D201A53BB10514F065
:1024D000A4EBB0E0B7FF02C0B0E0A0E00E94E112C0
:1024E00024EB30E040E050E00E94B712DA01C9016D
:1024F000880D991DAA1DBB1D2BE02C1508F464CE78
:10250000F8013297208148E850E0421B510927FD2D
:1025100053959A01220F331F220F331F82179307FF
:102520008CF031962081E8E5F2E0E21BF10927FD0D
:10253000F3959F01220F331F220F331F821793073A
:102540000CF49C0122503109220F331F8FB7F894ED
:10255000F101EE0DFF1DE45EFD4F328321838FBF3D
:1025600033CE2A9861CE80E072CE299883CE052E94
:1025700097FB1EF400940E94CE1257FD07D00E94D4
:10258000E91207FC03D04EF40C94CE1250954095FE
:10259000309521953F4F4F4F5F4F0895909580950F
:1025A000709561957F4F8F4F9F4F08950E940B1339
:1025B000A59F900DB49F900DA49F800D911D112497
:1025C0000895B7FF0C94D6120E94D612821B930B6B
:1025D0000895A1E21A2EAA1BBB1BFD010DC0AA1F64
:1025E000BB1FEE1FFF1FA217B307E407F50720F07C
:1025F000A21BB30BE40BF50B661F771F881F991FF7
:102600001A9469F760957095809590959B01AC013F
:10261000BD01CF010895A29FB001B39FC001A39F48
:10262000700D811D1124911DB29F700D811D11240B
:10263000911D0895DB018F939F930E94D612BF9145
:10264000AF91A29F800D911DA39F900DB29F900D01
:1026500011240895991B79E004C0991F961708F07A
:10266000961B881F7A95C9F780950895AA1BBB1BF6
:1026700051E107C0AA1FBB1FA617B70710F0A61B82
:10268000B70B881F991F5A95A9F780959095BC01A3
:10269000CD010895EE0FFF1F0590F491E02D0994F0
:0E26A00081E090E0F8940C945513F894FFCF6D
:1026AE00010F00F401D007040004B904B904B90401
:1026BE00B904B904FFFFFFFF00E1000000000000B5
:1026CE009C01B501CF01EA01070226024702690209
:1026DE008E02B502DE020A0300181415160B04143E
:1026EE00151600C18081000000000000005901385D
:1026FE00047A016F01C0017E019C0100000000D52B
:10270E0008000000000209000000004A0500000059
:10271E0000AE089D0896087C087631303E3E673143
:08272E00363E3E3E63313600E9
:00000001FF
